:020000040800F2
:10000000900C0020A90100085737000801320008B1
:100010005537000839160008954000080000000018
:10002000000000000000000000000000013B00088C
:100030009916000800000000753A0008613B0008AE
:10004000C3010008C3010008C3010008C301000880
:10005000C3010008C3010008C3010008C301000870
:10006000C3010008C3010008C30100088D16000881
:10007000C3010008C3010008C3010008C301000850
:10008000C3010008C3010008C3010008C301000840
:10009000C3010008C3010008C3010008C301000830
:1000A000C3010008C3010008C3010008C301000820
:1000B000E13B0008C3010008C3010008C3010008B8
:1000C000C3010008C3010008C3010008C301000800
:1000D000C3010008C3010008C3010008C3010008F0
:1000E000C3010008C3010008C301000800F002F8C2
:1000F00000F04AF80AA090E8000C82448344AAF178
:100100000107DA4501D100F03FF8AFF2090EBAE875
:100110000F0013F0010F18BFFB1A43F0010318473B
:10012000404A0000604A0000103A24BF78C878C1F5
:10013000FAD8520724BF30C830C144BF04680C60ED
:10014000704700000023002400250026103A28BF35
:1001500078C1FBD8520728BF30C148BF0B60704739
:10016000662904F0A483752900F080800020704780
:100170001FB500F0B9FC04000020002104F030F8A5
:10018000E0601FBD10B510BD00F0AEFD1146FFF7D9
:10019000EFFF03F0ABFF00F0CCFD03B4FFF7F2FF7D
:1001A00003BC00F00FFE00000948804709480047E3
:1001B000FEE7FEE7FEE7FEE7FEE7FEE7FEE7FEE717
:1001C000FEE7FEE704480549054A064B7047000074
:1001D000DD3B0008ED00000890060020900C002098
:1001E00090080020900800200FB41CB50C0007AA4E
:1001F000009001D02044401E074B7B44694601908B
:10020000069800F01EFC002C03D06946002000F088
:100210002BFC1CBC5DF814FB7508000070B504468F
:1002200085690068C10601D5302600E02026C00798
:1002300007D070BDD4E9012130469047206A401CA8
:1002400020626D1EF6D570BD70B5044685690078D4
:10025000C00707D170BDD4E9012120209047206A52
:10026000401C20626D1EF6D570BD00002DE9F041E6
:100270000646002410687529314616A510D0AFF344
:100280000080002802DA404213A507E031688A079F
:1002900001D512A502E0490704D511A5012401E00A
:1002A000AFF3008000210A2206F1240709E0B0FB29
:1002B000F2FCB0FBF2F302FB1C003030785418461D
:1002C000491C0028F3D123462A463046BDE8F041B8
:1002D00000F049B9000000002D0000002B000000D4
:1002E000200000002DE9F0474FF0000A894604463F
:1002F000C0F820A02046E1688847002876D025284D
:1003000006D0D4E901219047206A401C2062F1E721
:10031000E168204600268847C4F81CA0054600274F
:10032000C4F818A02A2D09D0284603F0D8FE38B307
:1003300004EB8708303DC8F8185019E059F8041B41
:10034000204604EB87029161E1688847012F05464A
:1003500018D1E069002820DA26F020061DE0D8F840
:10036000180000EB800005EB40003038C8F818009A
:100370002046E1688847054603F0B1FE0028EED12B
:10038000012F0AD02E2D08D12046E16888477F1C16
:100390000546022F46F02006C4DBA069002803DAD8
:1003A000404246F00106A061F00701D026F0100699
:1003B0006C2D0AD0682D08D04C2D39D06A2D35D03F
:1003C000742D35D07A2D33D016E0E1682F462046C3
:1003D0008847B84205460AD16C2F27D04FF4806079
:1003E000E168064320468847054605E027E06C2F74
:1003F0001AD04FF4807006430DB3A5F141001928BF
:1004000002D8203546F400664A4629462046266032
:100410004E46FFF7A5FE80B101280BD0F61D26F051
:10042000070000F1080965E74020E4E78020D7E7EE
:100430000020D5E706F104095CE7284661E7206A59
:10044000BDE8F087032A40F2308010F0030C00F082
:10045000158011F8013BBCF1020F624498BF11F8FE
:1004600001CB00F8013B38BF11F8013BA2F10402B7
:1004700098BF00F801CB38BF00F8013B11F003032F
:1004800000F0FF82083AC0F0088051F8043B083AB7
:1004900051F804CBA0E80810F5E7121D5CBF51F835
:1004A000043B40F8043BAFF30080D20724BF11F8AF
:1004B000013B11F801CB48BF11F8012B24BF00F814
:1004C000013B00F801CB48BF00F8012B70474FF00B
:1004D00000020429C0F0128010F0030C00F01B8011
:1004E000CCF1040CBCF1020F18BF00F8012BA8BF1F
:1004F00020F8022BA1EB0C0100F00DB85FEAC17CE3
:1005000024BF00F8012B00F8012B48BF00F8012B95
:1005100070474FF0000200B51346944696462039C6
:1005200022BFA0E80C50A0E80C50B1F12001BFF4AC
:10053000F7AF090728BFA0E80C5048BF0CC05DF812
:1005400004EB890028BF40F8042B08BF704748BF60
:1005500020F8022B11F0804F18BF00F8012B7047D4
:100560007047704770472DE9F0470D46994692460F
:10057000044600F124080168880604D5E06921F0EA
:100580001001216000E00120A84201DD471B00E0CE
:100590000027A1697A1902EB0900081AA0612078E6
:1005A000C00602D42046FFF739FE002608E0D4E951
:1005B00001211AF806009047206A401C761C206230
:1005C0004E45F4DB2078C0060AD52046FFF726FE0C
:1005D00006E0D4E9012130209047206A401C2062C7
:1005E000381EA7F10107F4DC07E0D4E9012118F86F
:1005F00005009047206A401C2062281EA5F10105D5
:10060000F3DC2046FFF720FE2078000602D502200A
:10061000BDE8F0870120FBE770472DE9FF4F0C464E
:100620001E464FF0FF378BB0D2E90001DDF8608045
:100630000A908A46C1F30A5505B93D46002108468D
:100640004FF00000BAF1000F00F4400005DA00EBB3
:1006500080004FF4400101EA50004FEA9059B9F18F
:10066000010F00DDB9460A9850EA4A000ED044F660
:100670001050A5F2FF3545432F14B8F1000F1ED0DE
:100680007542291E1EDDC9F100021CE0B8F1010F00
:100690004FF0000001D0302103E0F24305E0215487
:1006A000401CB042FBDB30460022002121540B9954
:1006B000C1F80880C1E900200FB0BDE8F08FBD1B74
:1006C0006D1CDEE74A4600DA694206A800F096FA99
:1006D00006AB93E8070003AB83E8070050460A998E
:1006E00000F077FB8DE80700A0F500501F38009060
:1006F0000398002D0ADD42F21F014A4608440023F8
:1007000003A90390684600F0E0FD09E0A0F5005061
:100710004A461F38002303A90390684600F0EAFD0B
:100720008DE807000004000C03D04FF0FF304108B3
:1007300000E01046B8F1000F03D0002200921546E9
:100740001EE0751E05D400F0D3F9303262556D1EDF
:10075000F9D5B3460122084302D000227F1C04E0F1
:100760002078302801D100227F1E002A099784D0EA
:100770001DE0112D07DA00F0BBF9303262556D1C17
:1007800050EA0102F5D1084302D00098C8B10EE04A
:100790000021681E05E0235C625C63542254401E05
:1007A000491C8142F7DBAB46A81B401E0990002084
:1007B00004F80B000B98099AC0F80880C0E9002BD8
:1007C0007AE711264FF0000857E72DE9F04F8846E9
:1007D0000446D21D22F0070191B0D1E90001CDE914
:1007E0000A0103F058FC02460B98C00F01D02D20DF
:1007F00007E02068810701D52B2002E0202101EAD3
:10080000C000032A099001D0072A05DB03464146B0
:10081000204600F0B3F90BE12078800601D5E069AD
:1008200000E00620B8F1650F814606D0B8F1660FEA
:1008300018D0B8F1670F70D131E00020B9F1110F75
:10084000009001DB112301E009F101030AAA01A9CB
:100850000CA8FFF7E2FEDDE90C70002609F10105A6
:10086000834647E001204B4600904FF000470AAA1C
:1008700001A90CA8FFF7D1FEDDE90DB00C995D468A
:10088000002610B909F101000D18B9EB050003D4D9
:10089000C0F1FF3609F10105A5EB09002BE0B9F124
:1008A000010F01DA4FF001090020B9F1110F00909A
:1008B000484601DD112300E003460AAA01A90CA85D
:1008C000FFF7ABFEDDE90C704D460026834620782D
:1008D00000070AD4AB4500DA5D4601A8012D04DD0E
:1008E000411911F8011C302907D04F4502DA17F1E0
:1008F000040F04DA012082460FE06D1EEEE7002FA0
:1009000002DCED1B3E4403E0781CA84200DD7D1CA8
:10091000B81B00F1010A4FF000472078000703D40C
:10092000AA4501DB4FF0FF3A0021B7F1004F0DF16E
:1009300043088DF8431024D002202B23002F01DA26
:100940007F422D230A21021EA0F1010000DC5FB1CD
:1009500097FBF1FC97FBF1F201FB1C7C17460CF1B5
:10096000300C08F801CDEEE7A8F1010003702188F2
:10097000090501D5452100E06521A0F1010800F835
:10098000011C09980FA9A1EB0807FF1D00B1012068
:10099000411901EBEA70A1693844081A401EA061B0
:1009A0002078C00602D42046FFF738FC099828B109
:1009B000D4E901219047206A401C20622078C006BB
:1009C00022D52046FFF72AFC1EE0002E04DBB345AB
:1009D00002DD01A8805D00E03020D4E901219047CC
:1009E000206A401C2062761CAAF101005FEA000A1E
:1009F0000AD100F079F8C0680168405CD4E90121AF
:100A00009047206A401C2062281EA5F10105DCDC0D
:100A100007E0D4E9012118F8010B9047206A401C37
:100A20002062381EA7F10107F3DC2046FFF70CFC1B
:100A3000032011B041E6000001694A1C02610878F8
:100A4000704700B58FB0CDE901310021059105490E
:100A50007944CDE9031011466846FFF743FC0FB017
:100A600000BD0000E5FFFFFF0A6802F8010B0A6005
:100A70007047D1E900239A4202D2531C0B601070D8
:100A8000704710B5203AC0F00B80B1E81850203AFA
:100A9000A0E81850B1E81850A0E81850BFF4F5AF1E
:100AA0005FEA027C24BFB1E81850A0E8185044BFA8
:100AB00018C918C0BDE810405FEA827C24BF51F815
:100AC000043B40F8043B08BF7047D20728BF31F809
:100AD000023B48BF11F8012B28BF20F8023B48BF5A
:100AE00000F8012B704700000048704750060020B6
:100AF00030B5B0F10A024FEA900E71F100034EEAF0
:100B0000817EB0EB0E0061EB91014FEA101E4EEAC0
:100B1000017E10EB0E0041EB11114FEA102E4EEA50
:100B2000016E10EB0E0041EB11214FEA104E4EEA20
:100B3000014E10EB0E0041EB1141401841F1000154
:100B40004FEAD00040EA41704FEAD10110EB800536
:100B50004FEA810444EA907444EB01046D1944EBBC
:100B60000404521BA3414FF0000348BF0A3200D5D2
:100B700030BD401C41F1000130BD00002DE9F041C5
:100B80001F46044603260168072A01F4006004DBBF
:100B900008B116A505E016A503E008B115A500E00B
:100BA00015A521F010002060A069C01EA0610FB142
:100BB000401EA0612046FFF731FB4FB1D4E901216F
:100BC00038469047206A401C2062C01C206206E024
:100BD000206AFAE7D4E9012115F8010B9047761E47
:100BE000F8D22046FFF730FBBDE8F0814E414E00C1
:100BF0006E616E00494E4600696E66002DE9F04751
:100C0000814616468AB0354878440DC88DE80D00F7
:100C100032487844801C03AC0DC884E80D0041F6CE
:100C20009B300844372190FBF1F290FBF1F5A5F1E0
:100C3000800501FB12041B3C02D56442012000E048
:100C40000020DFF898A080460027FA44AAF1BE0AE7
:100C50000EE0E0070AD03246684607EB4701012361
:100C60000AEB810100F046FB8DE8070064107F1C51
:100C7000002CEED1194F7F44AE3F19E0E80715D0A4
:100C800007EB04100DF1180A90E80E008AE80E0038
:100C9000C068F04201D1981908903246012306A994
:100CA00003A800F027FB03AB83E807006D10641C6A
:100CB000002DE3D14FF0010332466946B8F1000F31
:100CC00003A802D000F001FB01E000F013FBC9E92A
:100CD0000001C9F808200AB0BDE8F0873C3F0000D9
:100CE00000487047300600207546FFF7F9FFAE4612
:100CF00005006946534620F00700854618B020B528
:100D0000FFF760FABDE820404FF000064FF0000703
:100D10004FF000084FF0000B21F00701AC46ACE8A3
:100D2000C009ACE8C009ACE8C009ACE8C0098D4610
:100D3000704710B50446AFF300802046BDE8104070
:100D4000FFF72BBA4FF0013C50F8042B51F8043B4D
:100D50009A4221D1A2EB0C03934313EACC1317D18F
:100D600050F8042B51F8043B9A4215D1A2EB0C0326
:100D7000934313EACC130BD150F8042B51F8043BE6
:100D80009A4209D1A2EB0C03934313EACC13DBD0B4
:100D90004FF00000704700BFD01A01BAB1FA81F1DC
:100DA00001F0180122FA01F0CB40C1F12001DBB2C1
:100DB000C0B2C01A2CFA01F3D11A914311EAC3113F
:100DC000E6D1704701491820ABBEFEE726000200BD
:100DD00070475FEA400C08BF91F0000F4FEA8C2388
:100DE0004FEAC12243EA51514FEA1C5018BF00F5A7
:100DF000F0404FEA300018BF41F000415FEA6C5C00
:100E000000F02980BCF1FF3F08BF40F080407047F0
:100E1000130C06BF12044FF0100C4FF0000C130E11
:100E200004BF12020CF1080C130F04BF12010CF1E5
:100E3000040C930F04BF92000CF1020CD30F04BFFB
:100E400052000CF1010C11464FF00002A0F11F00FE
:100E5000A0EB0C00704711F0004F08BF704731F055
:100E600000413FF4D5AF0B0C06BF09044FF0100C46
:100E70004FF0000C0B0E04BF09020CF1080C0B0F15
:100E800004BF09010CF1040C8B0F04BF89000CF1A5
:100E9000020CCB0F04BF49000CF1010CCCF1200374
:100EA000A0EB0C0022FA03F302FA0CF241EA030170
:100EB00000F10100704720F07F4C80EA030023F02E
:100EC0007F47ACEB070303F57C5300F0004003F1D0
:100ED000FF032DE980494FEA154B09B44FEA14434B
:100EE00025EA0B4E24EA03480FF2042606EB1327EB
:100EF00049083E785FEA320203FB0667C7F5000740
:100F000007FB06F64FEA54374FEAD64606F10206CB
:100F100007FB066CCCF1005C4FEA1C472CEA074C3F
:100F200007FB06F40CFB06F504EB15464FEA961694
:100F300034BF00204FF000404FEAD13706FB07FCDA
:100F40004FEA1C4C0CFB0BF7D21B03FB0CF761EBBD
:100F500007010CFB0EF7B0EB074072EB17420CFBDE
:100F600008F734BFA2EB0742B2EB074261EB17412F
:100F70004FEA0C444FEA910706FB07FC4FEA1C4C72
:100F80000CFB0BF7B0EBC74072EB573203FB0CF7CF
:100F900034BFA2EBC742B2EBC74261EB57310CFB47
:100FA0000EF7B0EBC70072EB57720CFB08F734BFBB
:100FB000A2EBC702B2EBC70261EB5771039F4FEA86
:100FC000816141EA921104EBCC044FEAD1374FEA38
:100FD000826206FB07FC42EA90124FEA80604FEA09
:100FE0001C4C0CFB0BF7D21B03FB0CF761EB07014E
:100FF0000CFB0EF7B0EB074072EB17420CFB08F747
:1010000034BFA2EB0742B2EB074261EB17414FEA54
:101010008C554FEA910704EB9C2406FB07FC4FEA32
:101020001C4C0CFB0BF7B0EBC74072EB573203FBC9
:101030000CF734BFA2EBC742B2EBC74261EB5731AA
:101040000CFB0EF7B0EBC70072EB57720CFB08F706
:1010500034BFA2EBC702B2EBC70261EB577115EBCD
:101060004C254FEA816141EA92114FEA82624FEAD0
:10107000D13742EA901206FB07FC44F100044FEA24
:1010800080604FEA1C4C0CFB0BF7D21B03FB0CF7E8
:1010900061EB07010CFB0EF7B0EB074072EB174258
:1010A0000CFB08F734BFA2EB0742B2EB074261EB3F
:1010B000174115EB1C154FEA813141EA92414FEA85
:1010C000823242EA90424FEA80304FEA0C7644F195
:1010D000000448EA03434EEA0B484FF0000EB2EB1F
:1010E000080C71EB030724BF624639464EEB0E0E27
:1010F0004FF0000B0018524149414BEB0B0BB2EB88
:10110000080C71EB03077BF1000B24BF62463946E4
:101110004EEB0E0E4FF0000B0018524149414BEBC5
:101120000B0BB2EB080C71EB03077BF1000B24BF38
:10113000624639464EEB0E0E51EA020718BF46F0E2
:10114000010616EB0E7655F1000254F1000103D5AD
:10115000BDE88901BDE80088BDE88901BDE8004817
:10116000B619524141EB0101A3F1010370478080A0
:101170007F7E7D7C7B7A79787776767574737271F1
:1011800071706F6E6E6D6C6C6B6A6A6968686766A9
:1011900066656464636362616160605F5F5E5E5D3B
:1011A0005D5C5C5B5B5A5A595958585757565655AF
:1011B00055555454535352525251515050504F4F11
:1011C0004F4E4E4D4D4D4C4C4C4B4B4B4A4A4A4961
:1011D00049494848484747474746464645454544A4
:1011E0004444444343434342424242414141002B31
:1011F0009C4630D477002BD01CB54FEA370703B498
:101200004FF010004FF01001BAF1000F06D0BCF102
:10121000000FDCBF40F0080040F008014FF0000074
:101220000FBCBDE810400BF1010BBBF1010F08BF73
:101230005FEA170722BF12F1010211F101014FF01D
:10124000004143F1000300F0004043EA0000704712
:10125000F9D35708D0E746EA064613F1400F4FEAA4
:1012600016461FDD13F1200FDFBF16430A4600218B
:1012700020335B42BED0C3F1200746EA064602FA9D
:1012800007F74FEA164646EA0706C3F1200722FA97
:1012900003F201FA07F721FA03F14FF0000342EAE3
:1012A0000702A7E746EA020646EA06464FEA16465E
:1012B00046EA0106BCBF46EA0646360C4FF000037C
:1012C0004FF000024FF0000194E72DE9804C9A4660
:1012D000934670B491E8380007C831EA400C48BF23
:1012E00034EA430C03D5FFF7E6FDFFF780FFF0BCBF
:1012F000BDE8008C2DE9804C9A46934670B491E885
:10130000380007C810F0804F08BF13F0804F03D19A
:1013100000F005F8FFF76BFFF0BCBDE8008C20F093
:101320007F4780EA030023F07F4C07EB0C03A3F513
:101330007C5300F00040A3F1FE0392F0000F00F098
:10134000B38095F0000F00F077802DE901494FEA56
:1013500011404FEA144621EA004800FB06FC24EA4B
:10136000064708FB06F607FB08F800FB07F718EB33
:1013700006484CEB164C4FEA124B18EB07484FEA65
:1013800015464CEB174022EA0B4E0BFB06FC25EAF8
:1013900006470EFB06F607FB0EFE0BFB07F71EEBE0
:1013A000064E4CEB164C4FF000061EEB074E4CEB76
:1013B000174B18EB0B0840F1000018EB0E0B58EB25
:1013C000000840F100008F1A4FF000013CBFC943F4
:1013D000661B14BFB5EB040C00213CBFC943F61BD0
:1013E0004FEA17444EEA8E0E27EA04454FEA1C479F
:1013F00004FB07622CEA074C05FB07F70CFB05F61C
:1014000004FB0CFC16EB074642EB174216EB0C46AE
:1014100042EB1C421BEB060658EB0202414146EA36
:101420009E0601D5BDE80189B619524141EB010183
:10143000A3F10103BDE801894FEA14454FEA1147C2
:1014400024EA054621EA074C05FB07F406FB07F7EB
:101450000CFB06F105FB0CFC11EB074144EB1744B8
:101460004FEA124711EB0C4144EB1C4422EA074CB3
:1014700005FB07F206FB07F70CFB06F605FB0CFC69
:1014800016EB074642EB174216EB0C4642EB1C45A7
:101490006A1854F1000148BF7047B619524141EB38
:1014A0000101A3F10103704795F0000F37D04FEA17
:1014B00011424FEA144721EA024624EA074C02FB94
:1014C00007F106FB07F70CFB06F402FB0CFC14EB20
:1014D000074441EB17414FEA154714EB0C4441EB2D
:1014E0001C4125EA074C02FB07F506FB07F70CFB3E
:1014F00006F602FB0CFC16EB074645EB174516EB10
:101500000C4645EB1C42121951F1000148BF7047CF
:10151000B619524141EB0101A3F1010370474FEAB3
:1015200014454FEA114724EA054621EA074C05FB1A
:1015300007F106FB07F70CFB06F24FF0000605FB70
:101540000CFC12EB074241EB174112EB0C4251EB42
:101550001C4148BF7047921841EB0101A3F1010300
:101560007047000070B5044600688168C943C90728
:1015700017D1816821F00101816000F063FD05460B
:101580000AE000BF00F05EFD401B022804D920687D
:101590008068C043C00706D020688068C043C00789
:1015A000F0D0002070BDA06A40F01000A062E06A98
:1015B00040F00100E062012070BD0000F8B5002697
:1015C0000446009600688168C943C9072DD0816828
:1015D00041F001018160164816490068B0FBF1F046
:1015E00000E0401E00900028FBD100F02BFD0546D6
:1015F00016E000BF00F026FD401B022810D920682D
:101600008068C043C0070BD0A06A40F01000A06201
:10161000E06A40F00100E06284F824600120F8BD37
:1016200020688068C043C007E4D10020F8BD0000F6
:101630008C00002040420F00FEE7000070B5104C07
:101640002078002818D10F49E0680025884214DB73
:10165000E06B401CE06305280ED30120E56304F134
:101660005006207086F82C0000F0ECFCA0630648C1
:1016700000684563B562756270BDE56370BD0000CA
:10168000000000200000844158050020014800F0BF
:10169000F1BA000090040020704772B6FEE7000027
:1016A000F8B500250446009590F8240001280BD0D9
:1016B000012084F824002046FFF754FF2046FFF75E
:1016C0007DFF060002D050E00220F8BDA06A20F4A1
:1016D000885040F00200A062022000F0D9FE2549A7
:1016E0000968B1FBF0F0400000E0401E00900028C7
:1016F000FBD12068816841F00801816000F0A2FC04
:10170000074608E000F09EFCC01B0A2803D92068A9
:101710008068000715D4206880680007F2D420682C
:10172000816841F00401816000F08CFC074612E002
:1017300000F088FCC01B0A280DD92068806840078B
:1017400009D5A06A20F0020040F01000A06284F8E1
:1017500024500120F8BD206880684007E8D4A06AC2
:1017600020F0020040F00100A06284F824503046CE
:10177000F8BD00008C000020F8B50024009490F81B
:1017800024202546012A12D0012280F824204A680C
:101790001F23072A0DD20668776B521E02EB8202C6
:1017A00093409F430B6893401F43776319E00220E7
:1017B000F8BD06680D2A0AD2376BD21F02EB8202EF
:1017C00093409F430B6893401F43376309E0F76AD8
:1017D0000D3A02EB820293409F430B6893401F43F4
:1017E000F7620A68072306680A2A0AD3F7680A3AE2
:1017F00002EB420293409F438B6893401F43F76084
:1018000008E0376902EB420293409F438B689340A4
:101810001F4337610A68102A01D0112A20D1124BC8
:1018200002689A4217D193681B0219D4936843F453
:10183000000393600968102912D10C490C4A096809
:10184000B1FBF2F101EB8101490000E0491E00917A
:101850000029FBD104E0816A41F02001816201246A
:1018600080F824502046F8BD002401408C00002060
:1018700040420F000068C06C704700002DE9F04145
:101880004FF0000704003D467ED0A06A002628B92C
:10189000E66284F82460204600F07EF82046FFF7D8
:1018A00061FEA16AC90600D420B1A06A40F0100010
:1018B000A06269E0A16A21F4885141F00201A162AD
:1018C0006268E169237B0A4347EA43010A43A1684E
:1018D0004FF48077B94209D0012907D05FF00001A9
:1018E00094F814C0BCF1010F02D00AE03946F7E7C2
:1018F000F3B1A36A43F02003A362E36A43F0010358
:10190000E3622368D3F804C02CF4694C4CEA010C60
:10191000C3F804C021688B68DFF870C003EA0C03C9
:1019200013438B60A168B9420BD0012909D00CE0A8
:10193000DFF85CC0A3690CEB43330B4343F4006155
:10194000DFE7218A0D05A5F580152168CB6A23F410
:1019500070032B43CB62216889680E4B194091427A
:1019600008D1E662A16A21F0020141F00101A16201
:10197000BDE8F081A06A20F0020040F01000A062F3
:10198000E06A40F00100E0620120F1E7FDF7E1FFCD
:1019900000E0FFFFFE0E1FFF70B586B00025064673
:1019A00000950195029503950068214988423DD133
:1019B000204CA06940F40070A061A06900F40070A0
:1019C0000490A06940F00400A061A069694600F09D
:1019D00004000490032000900190174800F034FAAE
:1019E000606940F0010060616069154C00F0010021
:1019F00004901248C4E900058015A560C4E90350AD
:101A0000800060612020A0610002E061204600F0BB
:101A1000DBF908B1FFF741FE3462002201210B20FF
:101A2000666200F003FD0B2000F0F2FC06B070BD12
:101A3000002401400010024000080140080002405C
:101A4000900400202DE9F84300270D460446009736
:101A500000F0F8FA804620688168C90508D5A06AB8
:101A600040F02000A06284F824700120BDE8F883D3
:101A70004168C90503D4C06A10F4700F2AD002204F
:101A800000F006FD3B490968B1FBF0F620680369E8
:101A900039490B424FEA61014FEAA1121FD1C368D5
:101AA0004FEA611C13EA0C0F19D103690B4225D1CF
:101AB000C068104222D1142023E0681C0AD02DB146
:101AC00000F0C0FAA0EB0800A84203D92068006823
:101AD000800725D5206800688007EED52DE00369D2
:101AE0000B4202D1C168114206D0026923490A4261
:101AF00006D1C068084203D1542002E0292000E04A
:101B0000FC204643009816E0681C11D02DB100F06F
:101B100099FAA0EB0800A8420AD90098B04207D26F
:101B2000A06A40F00400A06284F8247003209DE7BE
:101B30000098401C0090B042E6D321686FF012007C
:101B40000860A06A40F40070A06220688068C0F35A
:101B5000424007280CD1207B50B9A06A20F4807045
:101B6000A062A06AC00403D4A06A40F00100A06291
:101B700000207BE78C000020244992244992240015
:101B800070B5044690F8240001280DD0012084F897
:101B900024002046FFF712FD02004FF0000005D0A0
:101BA00084F82400104670BD022070BDA16A40F286
:101BB0000123994341F48071A1621F4D23681F499D
:101BC000AB4218D10E6816F4702F14D0A66A46F4F2
:101BD0008016A6620E68760505D5A66A26F400561C
:101BE00046F48056A662A66AF6040AD5E66A26F08E
:101BF0000606E66206E0A66A26F48016A6625E681D
:101C0000E9E7E06284F824006FF0020018602068C1
:101C10008368C3F34243072B05D1A84208D1096862
:101C200011F4702F04D0816841F480118160B9E70C
:101C3000816841F4A001F9E7002801400424014033
:101C400010B5044690F82400012807D0012084F83C
:101C500024002046FFF786FC10B107E0022010BDEB
:101C6000A16A21F4885141F00101A162002184F8A8
:101C7000241010BD2DE9F05FC16B0C6801680B6882
:101C8000D0F840C0042202FA0CF2494DDFF824A13A
:101C9000494E4A4FDFF828B1DFF828E122422CD024
:101CA0005A072AD50A68920603D40A6822F0040269
:101CB0000A600168A94201D1042219E0514501D10D
:101CC000402215E0B14202D14FF4806210E0B942E7
:101CD00002D14FF480420BE0594502D14FF48022EB
:101CE00006E0714502D14FF4800201E04FF08062BE
:101CF0002F4908394A60C16A3BE04FF0020808FAF0
:101D00000CF818EA040F4FF000094FF0010235D02B
:101D10005FEA837832D50B689B0605D40B6823F005
:101D20000A030B6080F821200168A94201D1022238
:101D300019E0514501D1202215E0B14202D14FF402
:101D4000007210E0B94202D14FF400520BE0594545
:101D500002D14FF4003206E0714502D14FF4001277
:101D600001E04FF00072124908394A6080F8209073
:101D7000816A00291AD0BDE8F05F0847082505FAF6
:101D80000CF5254212D01B0710D50B6823F00E036B
:101D90000B6090F84010C36B02FA01F15960826346
:101DA00080F8212080F82090016BE2E7BDE8F09FE9
:101DB000080002401C000240300002404400024083
:101DC000580002406C00024030B528B308C81349DF
:101DD00014221944B1FBF2F18900C16310498163F7
:101DE000022141771A6843F6F0718A43D0E9001462
:101DF0002143D0E902452C4321430469214344692E
:101E00002143846921431143196000214163012268
:101E100042770177084630BD012030BDF8FFFDBF95
:101E20000000024070B5044600F00CF90546601C45
:101E300002D004480078044400F004F9401BA0429A
:101E4000FAD370BD800000202DE9F84FDFF8B8917B
:101E50000024A9F1040B23460F2709F1040AABF172
:101E6000040EC9E00125A5402A40AA427DD1674E53
:101E7000D1F804C0ACEB0608B44532D014DCBCF198
:101E8000030F3AD009DCBCF1000F2AD0BCF1010FDE
:101E90001CD0BCF1020F31D11DE0BCF1110F17D0E5
:101EA000BCF1120F2AD119E0B8F5881F19D006DC51
:101EB000B8F5803F15D0B8F5801F1FD111E0B8F5F7
:101EC000001F0ED0B8F5041F18D10AE0CB6815E04A
:101ED000CB681B1D12E0CB6808330FE0CB680C33D6
:101EE0000CE08B682BB1012B4FF0080303D0456148
:101EF00004E0042302E0056100E00023FF2A01D88A
:101F0000064601E000F104064FEA840501D9A5F177
:101F10002005D6F8008007FA05FC28EA0C0803FA29
:101F200005F548EA0508C6F800804D68ED0062D561
:101F3000374DAE6946F00106AE61AD6924F0030687
:101F400005F001050095334D06EB050CDCF8085053
:101F5000A607360F07FA06F825EA0805DFF8B88065
:101F6000404503D14FF0000817E044E0DFF8AC80B3
:101F7000404502D14FF001080FE0DFF8A480404552
:101F800002D14FF0020808E0DFF89880404502D106
:101F90004FF0030801E04FF0040808FA06F848EA99
:101FA0000508CCF808804D68D9F80060ED024D4670
:101FB00001D5164300E096432E604D68DAF80060C4
:101FC000AD02554601D5164300E096432E604D689C
:101FD000DBF80060AD035D4601D5164300E0964393
:101FE0002E604D68DEF80060ED03754601D516439E
:101FF00000E096432E60641C0D682A46E5407FF49D
:1020000031AFBDE8F88F0000080401400000111056
:10201000001002400000014000080140000C014097
:102020000010014000140140C26821EA02030A4086
:1020300043EA0241016170470AB101617047090436
:10204000FBE7000001488068704700008000002026
:1020500070B5040025D094F83D00002520B984F81F
:102060003C50204600F04EF9242084F83D002068C2
:10207000016821F0010101602068016841F400411C
:1020800001602068016821F40041016000F05EFBFE
:102090004D4A6168914201D84C4900E04C49884260
:1020A00001D2012070BD4B492368B0FBF1F15E689D
:1020B00026F03F060E435E606368934206D94FF4F4
:1020C000967359434FF47A73B1FBF3F12368491CBB
:1020D0001E6A26F03F06314319626168914210D8AA
:1020E0004900401EB0FBF1F2521CC2F30B02042A5D
:1020F00001D2042022E0B0FBF1F0401CC0F30B0041
:102100001CE0A268F2B301EBC10303EB0116431E0E
:10211000B3FBF6F35B1C43F480431B0549D092B339
:1021200001EBC10202EB0111401EB0FBF1F0401CBB
:10213000C0F30B0040F4804040F400402168CA69BD
:102140004CF6FF739A431043C861D4E9071001436A
:102150002068026822F0C00211430160D4E9030143
:1021600001432068826848F2FF339A43114381603B
:10217000D4E9050108432168CA6822F0FF02104330
:10218000C86001E00EE016E02068016841F001013E
:1021900001602564202084F83D00256384F83E50CA
:1021A000002070BD01EB4106431EB3FBF6F35B1C40
:1021B000B3E70120C2E701EB4101401EB0FBF1F0A3
:1021C000401CC0F30B00B7E7A086010080841E000E
:1021D00000093D0040420F002DE9F84F1F46904690
:1021E0008A460446DDF82890FFF72CFF054694F850
:1021F0003D0020287FD11923012240492046009527
:1022000001F090F8002876D194F83C00012872D0B3
:10221000012084F83C0020680168C90703D10168E7
:1022200041F0010101602068016821F40061016052
:10223000212084F83D00102084F83E00002626640A
:10224000C4F824806785608D20852D48E0622B4688
:102250004A465146204600F0EBFF90B9206841699C
:102260008069009036E02A464946204601F000F990
:1022700050B1206C042804D12068016841F4007139
:1022800001600120BDE8F88F606A2168007808616C
:10229000606A401C6062618D491E6185218D491E06
:1022A00089B2218522685369DB435B070BD451B1A6
:1022B00000781061606A401C6062608D401E60851D
:1022C000208D401E20852A464946204600F0FEFF0C
:1022D0000028CED1208D0028C5D154F83D0B0168CF
:1022E00041F400710160202004F81E09E67766774A
:1022F0000020C7E7FFE70220C4E70000020010004B
:102300000000FFFF10B586B00021009101910291FD
:10231000039100680F4988421AD10F4CA06940F020
:102320000800A061A069694600F008000490C02080
:10233000009012200190032003900848FFF784FDCD
:10234000E06940F40010E061E06900F400100490DE
:1023500006B010BD0054004000100240000C0140C7
:102360000248816802781144816070478000002033
:10237000074810B5016841F010010160032000F02A
:1023800075F80F2000F006F800F024F8002010BDCA
:102390000020024070B50D4D04464FF47A71287844
:1023A000B1FBF0F00A490968B1FBF0F000F0A4FBC2
:1023B00048B9102C07D200222146501E00F036F8F2
:1023C00000206C6070BD012070BD00008000002006
:1023D0008C0000200C4808B5816941F00101816141
:1023E000816901F001010091C16941F08051C16131
:1023F000C06900F0805000900448416821F0E0611D
:1024000041F00071416008BD001002400000014031
:10241000002809DB00F01F020121914040098000E3
:1024200000F1E020C0F8001170470000F0B40E4B3E
:102430001B680C46C3F30223C3F10705042D00D922
:102440000425191D072901D2002300E0DB1E012607
:1024500006FA05F1491E214099409E40761E16401D
:102460003143F0BC01F02BBE0CED00E0064900F05A
:10247000070208684FF6FF03184040EA0220034AAB
:1024800010430860704700000CED00E00000FA0502
:1024900010B501460020234C012922D0022939D051
:1024A00010291DD161682268D20119D51E48C1F3D7
:1024B0008342C903805C0AD561681B4AC1F340416D
:1024C000921E515C194AB2FBF1F1484301E01849F0
:1024D00048436168490203D440000321B0FBF1F096
:1024E00010BD226AC2F30121012903D1920701D54F
:1024F000C80310BD022905D1626A920702D549F6C8
:10250000404010BD0329FCD121688903F9D54FF261
:10251000244010BD00F02AF96168C1F38131491CE3
:102520004900DBE700100240A14A000800127A00CF
:1025300000093D002DE9F84305460078354CC007F9
:1025400054D0E0690026C00008D4E06940F0805013
:10255000E061E069012600F0805000902E4801689B
:10256000C90512D40168804641F480710160FFF70B
:1025700069FD074605E000BFFFF764FDC01B642846
:1025800023D8D8F80000C005F6D5206A10F44070B2
:1025900021D0A98801F4407181421CD0206A1F49D2
:1025A000012220F440700A6000220A602062C00705
:1025B00011D0FFF747FD074641F2883808E000BF19
:1025C000FFF740FDC11B414502D90320BDE8F88358
:1025D000206A8007F4D5206A696820F440700843B7
:1025E00020621EB1E06920F08050E0612878800709
:1025F00005D56068A96820F44040084360602878E9
:10260000C00605D56068E96820F480000843606072
:102610000020DBE70010024000700040400442420E
:102620002DE9F0470F46050061D0434E306800F0B9
:102630000700B84209D2306820F007003843306004
:10264000306800F00700B84251D128683B4C810740
:1026500012D5400703D5606840F4E06060602878D8
:10266000000703D5606840F4605060606068A96846
:1026700020F0F000084360602878C00728D0686820
:10268000012810D02168022810D0890700292EDAED
:10269000616821F0030101436160FFF7D3FC8046CC
:1026A00041F288390DE021688903EFE78901EDE700
:1026B000FFF7C8FCA0EB0801494502D90320BDE89B
:1026C000F0876068696800F00C00B0EB810FEFD113
:1026D000306800F00700B8420BD9306820F00700DE
:1026E00038433060306800F00700B84201D0012064
:1026F000E5E72878400705D56068E96820F4E060E0
:10270000084360602878000706D56068296920F4CE
:10271000605040EAC100606000F038F86168084A23
:10272000C1F30311515CC8400649086006480068BF
:10273000FFF730FE0020C2E70020024000100240F8
:10274000B14A00088C00002084000020044805499C
:1027500000684968044AC1F30221515CC8407047CF
:102760008C00002000100240C14A000804480549BE
:1027700000684968044AC1F3C221515CC8407047EF
:102780008C00002000100240C14A00080E4A516827
:102790000E4801F00C03042B11D0082B0FD10C486C
:1027A000C1F38343C903C05C0AD55168084AC1F329
:1027B0004041921E515C054A5043B0FBF1F0704716
:1027C00004494843704700000010024000127A009C
:1027D0008F4A000800093D002DE9F84F040070D031
:1027E0002078C04DC00749D06868C0F38100012837
:1027F00007D06868C0F38100022809D16868C00367
:1028000006D52868800339D560680028E7D035E010
:102810006068B0F5803F0BD010B1B0F5A02F11D09B
:10282000286820F480302860286820F4802002E0A6
:10283000286840F480302860606890B1FFF702FC9F
:1028400006460AE0286840F480202860F0E700BFD0
:10285000FFF7F8FB801B642873D828688003F7D53E
:102860000CE0FFF7EFFB064605E000BFFFF7EAFBD1
:10287000801B6428F0D828688003F7D420789A4E0B
:1028800080074FF001094FF0000839D5686810F053
:102890000C0F07D06868C0F38100022809D168686E
:1028A000C00306D42868800714D52069012808D100
:1028B00010E02069B0B1C6F80090FFF7C3FB0746EF
:1028C00005E00AE1FFF7BEFBC01B0228C4D8286858
:1028D0008007F7D52868616920F0F80040EAC10058
:1028E00028600DE0C6F80080FFF7ACFB074604E067
:1028F000FFF7A8FBC01B022823D828688007F7D45D
:10290000207800072CD57948A169D9B1C0F800908A
:10291000FFF798FB074604E0FFF794FBC01B022873
:102920000FD8686A8007F7D571484FF4FA510068EC
:10293000B0FBF1F0009000BF0098411E0091FAD268
:102940000EE080E0C0F80080FFF77CFB074604E063
:10295000FFF778FBC01B022875D8686A8007F7D498
:102960002078400760D5E8690027C00008D4E869EE
:1029700040F08050E861E869012700F08050009045
:102980005C480168C90513D40168834641F480712D
:102990000160FFF757FB824606E000BFFFF752FBDE
:1029A000A0EB0A0064284ED8DBF80000C005F5D57E
:1029B000E06801280AD008B1052813D0286A20F061
:1029C00001002862286A20F0040002E0286A40F032
:1029D00001002862E06841F2883B98B1FFF732FBC2
:1029E00082460BE0286A40F004002862EEE700BF50
:1029F000FFF728FBA0EB0A0159455AD8286A80073F
:102A0000F6D50CE0FFF71EFB824605E0FFF71AFB48
:102A1000A0EB0A0159454CD8286A8007F6D41FB1AB
:102A2000E86920F08050E861E06988B36968C1F323
:102A30008101022944D00228C6F8608004D0FFF743
:102A400001FB044638E034E0FFF7FCFA074604E0F7
:102A5000FFF7F8FAC01B02282BD828688001F7D4AA
:102A6000206AB0F5803F05D16868A16820F4003085
:102A700008436860D4E908010843696821F47411C7
:102A800008436860C6F86090FFF7DCFA044606E089
:102A900025E000BFFFF7D6FA001B022809D82868F6
:102AA0008001F7D51BE000BFFFF7CCFA001B02281E
:102AB00002D90320BDE8F88F28688001F4D40EE025
:102AC0000128F7D06868226A00F48031914204D16D
:102AD000616A00F47010884201D00120EAE700200A
:102AE000E8E7000000100240000042428004424239
:102AF0008C0000200070004010B5401EB0F1807FB7
:102B000001D3012010BD4FF0E02460610F21601758
:102B100001F0D5FA0020A06107202061002010BD3F
:102B20007047704710B590F83C20012A22D001224E
:102B300080F83C20CA688C6822F4407222434C68BA
:102B400022F4806222430C6822F4006222430C6962
:102B500022F4805222434C6922F400522243C96974
:102B6000002322F480420A4301684A6480F83C3022
:102B7000002010BD022010BD70B590F83C20012A45
:102B800026D0012480F83C40022280F83D200368D2
:102B90005A689D6822F070060A6832435A600D4BED
:102BA00002689A4208D0B2F1804F05D00A4B9A428F
:102BB00002D00A4B9A4204D1496825F08003194398
:102BC000916080F83D40002180F83C10084670BDBF
:102BD000022070BD002C01400004004000080040AD
:102BE00010B5040003D094F83D0010B107E00120B7
:102BF00010BD002084F83C00204600F01FF80220A1
:102C000084F83D00211D206800F0F0FF012084F8C9
:102C1000460084F83E0084F83F0084F8400084F8C1
:102C2000410084F8420084F8430084F8440084F8AA
:102C3000450084F83D00002010BD000008B5114A91
:102C400001681148914208D1816941F400618161B4
:102C5000806900F40060009008BDB1F1804FFBD1A5
:102C6000C16941F00101C161C069002200F00100A9
:102C7000009001211C20FFF7D9FBBDE808401C2073
:102C8000FFF7C6BB002C01400010024090F83D1039
:102C9000012901D001207047022180F83D10016810
:102CA000CA6842F00102CA6000680B49884208D035
:102CB000B0F1804F05D00949884202D008498842C6
:102CC00004D1816801F00701062903D0016841F0B1
:102CD0000101016000207047002C01400004004009
:102CE0000008004070B5044690F83C00002501281B
:102CF00017D0012684F83C60022084F83D0020684B
:102D0000826822F0770222F47F42826008685028AD
:102D100038D00DDC20284FD005DC90B3102811D11D
:102D20004AE0022070BD302846D040280AD13BE05E
:102D300060282FD070280DD0B0F5805F03D0B0F59B
:102D4000005F12D0012584F83D60002084F83C002B
:102D5000284670BDCB68D1E90121206800F08FFFC3
:102D60002068816841F0770109E0CB68D1E9012151
:102D7000206800F084FF2068816841F48041816010
:102D8000E1E719E0CA684968206801F02DF8502190
:102D9000206806E0CA684968206801F036F86021BA
:102DA000206800F076FFCEE7CA684968206801F025
:102DB0001BF840212068F4E7226801461046F0E73E
:102DC00070472DE9F04104460068C66805694FF078
:102DD0000007A90713D5B10711D5F91E016101201C
:102DE0002077206880698007204602D0FFF7E8FF3F
:102DF00004E000F0A5F8204600F037F927776807CF
:102E000016D5700714D521686FF004000861022000
:102E100020772068806910F4407F204602D0FFF7B9
:102E2000CFFF04E000F08CF8204600F01EF9277771
:102E3000280715D5300713D521686FF00800086101
:102E4000042020772068C0698007204602D0FFF761
:102E5000B7FF04E000F074F8204600F006F9277789
:102E6000E80616D5F00614D521686FF01000086149
:102E7000082020772068C06910F4407F204602D0E7
:102E8000FFF79EFF04E000F05BF8204600F0EDF84D
:102E90002777E80708D0F00706D021686FF0010017
:102EA0000861204600F030F9280608D5300606D51E
:102EB00021686FF0800008612046FFF731FE680648
:102EC00008D5700606D521686FF0400008612046DD
:102ED00000F02AF9A8060AD5B00608D521686FF0D7
:102EE000200008612046BDE8F041FFF71ABEBDE8AA
:102EF000F081000000B585B00021009101910291A0
:102F0000039100680B49884212D10B48816941F056
:102F1000040181618069694600F0040004904FF467
:102F2000807000900220019003900448FEF78CFF0F
:102F300005B000BD002C0140001002400008014017
:102F4000704770B5044690F83C0000260D460128F5
:102F50000FD0012084F83C006AB1042A1DD0082A51
:102F60002FD00C2A3FD00126002084F83C003046A8
:102F700070BD022070BD206800F094FE2068816959
:102F800041F0080181612068816921F004018161BB
:102F9000206881692A69114311E0206800F0AAFEC7
:102FA0002068816941F4006181612068816921F4B0
:102FB00080618161206881692A6941EA0221816119
:102FC000D2E7206800F0C2FE2068C16941F0080124
:102FD000C1612068C16921F00401C1612068C16933
:102FE0002A69114311E0206800F0DCFE2068C16905
:102FF00041F40061C1612068C16921F48061C1614F
:103000002068C1692A6941EA0221C161ACE710B5B3
:10301000040003D094F83D0010B107E0012010BD7A
:10302000002084F83C00204600F01EF8022084F8BE
:103030003D00211D206800F0D9FD012084F84600E4
:1030400084F83E0084F83F0084F8400084F8410092
:1030500084F8420084F8430084F8440084F8450072
:1030600084F83D00002010BD7047704710B504463D
:10307000022249B104290ED0082913D094F8410046
:10308000012816D0012010BD94F83E000128F9D186
:1030900084F83E200FE094F83F000128F2D184F834
:1030A0003F2008E094F840000128EBD184F840204C
:1030B00001E084F841200122206800F0D3FD0F498F
:1030C0002068884203D1426C42F400424264206886
:1030D000884208D0B0F1804F05D00949884202D01B
:1030E0000849884204D1816801F00701062903D00C
:1030F000016841F001010160002010BD002C014079
:10310000000400400008004010B50068B0F1804F96
:1031100009D100F0B1FC00F0F5FCFEF78FFABDE834
:10312000104000F025BC10BD704770B5040004D0FD
:1031300094F84100002510B106E0012070BD84F82C
:103140004050204600F024F8242084F841002068F4
:10315000C16821F40051C160204600F069FE20687A
:10316000016921F4904101612068416921F02A013F
:1031700041612068C16841F40051C160656420204C
:1031800084F8410084F842006563002070BD0000AF
:1031900030B585B000240094019402940394006833
:1031A0001449884224D11448816941F480418161E5
:1031B000816901F480410491816941F004018161D8
:1031C00080690E4D00F0040004904FF400700090F0
:1031D000022001900320039069462846FEF734FE42
:1031E0002815CDE90004694628460294FEF72CFE16
:1031F00005B030BD00380140001002400008014019
:10320000FEE701684A69D24352050FD46FF4806229
:103210004A61002140F8301F202242738173026905
:1032200042F00402026101730120704700207047E0
:10323000F8B50446C06A1E460D461746082807D052
:10324000012805D010F5803F02D0206B122804D150
:103250002068016841F480710160134600224FF03C
:1032600001112046009600F05DF840B1206800682A
:10327000C00502D54FF4007020640320F8BD20691A
:10328000B0F5804F0ED00620216800EAD51040F03E
:10329000F000086133463A460B49204600F08AF8B0
:1032A00078B902E005F0FE0000E0E8B221680861AC
:1032B000054933463A46891F204600F07BF800282E
:1032C000DCD00120F8BD00000800010070B51646F2
:1032D0000D4604461EE02046FFF793FF08B101208B
:1032E00070BD681C16D0FEF7ADFE801BA84200D84A
:1032F00085B920684069C04340070BD5002044F8D9
:10330000300F20216173A073216941F020012161F8
:103310002073E4E720684069C0434007DBD4002005
:1033200070BD00002DE9F047984617460D4604464B
:10333000C1F30746DDF820902AE000BFB8F1FF3F57
:1033400026D0FEF77FFEA0EB0901414502D8B8F177
:10335000000F1DD12068012E16D0806925EA0000DB
:103360000004000C12D00020B84211D1002044F813
:10337000300F20216173A073216941F02001216188
:1033800020730120BDE8F0874069E7E70120EBE703
:103390002068012E0AD0806925EA00000004000C94
:1033A00006D00020B842C9D00020EBE74069F3E71F
:1033B0000120F7E72DE9F047984616460D460446EA
:1033C0004FF000094FF0200AC1F3074723E02068BF
:1033D0004069C043400515D42068016841F400717C
:1033E000016021686FF480604861C4F8309084F80F
:1033F0003DA084F83E90216C41F00401216484F8E2
:103400003C9021E0701C06D0FEF71CFEA0EB0800EB
:10341000B04203D816B1012F1FD021E02068012F40
:1034200015D0806925EA00000004000C18D000BF08
:1034300044F8309F84F80DA084F80E90216941F083
:103440002001216184F80C900120BDE8F0874069DB
:1034500025EA00000004000CEAD12068406901E080
:103460002068806925EA00000004000CAFD1ECE779
:1034700070B516460D4604461EE02046FFF7C1FE15
:1034800008B1012070BD681C16D0FEF7DBFD801B63
:10349000A84200D885B920684069C04300060BD512
:1034A000002044F8300F20216173A073216941F09E
:1034B000200121612073E4E720684069C0430006D1
:1034C000DBD4002070BD00003EB5002411480094FC
:1034D000019402940E49846001600473047501250F
:1034E00005614FF460214460C161FEF7C7F908B17E
:1034F000FEF7D3F807200094CDE90150694605484E
:10350000FEF73AF9002801D0FEF7C7F83EBD0000EB
:1035100000240140D404002070B586B00024214866
:103520000094019402940394816941F01001816137
:10353000816901F010010491816941F020018161EC
:10354000816901F020010491816941F004018161E8
:10355000816901F004010491816941F008018161F0
:103560008069114E00F008004FF4005504900022CD
:1035700029463046FEF760FD01200095CDE90104A3
:103580000220039069463046FEF75EFC40F203409D
:10359000CDE90004694605480294FEF755FC06B0E3
:1035A00070BD00000010024000100140000C0140FE
:1035B0000D4810B50B4901600C49416000214FF4E2
:1035C00080428160C0E9031241618161C161016291
:1035D000FEF73EFD002803D0BDE81040FEF75DB8C1
:1035E00010BD00000054004004050020A08601002A
:1035F00010B596B000240F94109411941294139463
:103600001C2108A81494FCF784FF20216846FCF7CD
:1036100080FF28482649C0E9001440F2CF21C0E9C4
:103620000241046144618461FFF7DAFA08B1FEF7F0
:1036300034F84FF480500F900FA91E48FFF752FB4B
:1036400008B1FEF72AF81B48FFF7E1FC08B1FEF7C6
:1036500024F8139413A917481494FFF78DFA08B1AE
:10366000FEF71BF86020CDE908040A940B940C9433
:103670000D94002208A90F480E94FFF762FC08B1D0
:10368000FEF70BF800944FF40050CDE9044002948B
:1036900001940394694607480794FFF743FA08B179
:1036A000FDF7FBFF0348FFF725FC16B010BD000037
:1036B000002C01405805002010B586B000241648A3
:1036C000009401940294039404944FF08041059473
:1036D00001604721C0E9011440F2E731C0E9031459
:1036E0008461FFF77DFA08B1FDF7D7FF4FF48050F2
:1036F000009069460848FFF7F5FA08B1FDF7CDFFDD
:10370000049404A904480594FFF736FA002801D070
:10371000FDF7C3FF06B010BDA00500200C4810B592
:103720000A4901604FF4E1314160002181600C22BF
:10373000C160C0E904128161C161FFF7F6FC002895
:1037400003D0BDE81040FDF7A8BF10BD0038014010
:10375000E8050020FEE7FEE74FF480610148FCF732
:10376000B6BE0000900000202DE9FF4F8346A2F175
:1037700020005F2800D320221F4902EB820008446A
:10378000A0F1A0095FF00001002419F801C02CE0AD
:103790000198204401FB030086B2802E27D200202E
:1037A000012505FA00F212EA0C0F1AD00022DFF808
:1037B0004CE014E002EBCB0500FB0355ADB2EF0883
:1037C000082F0BD206EBC71A05F007081EF80A707F
:1037D000012505FA08F52F430EF80A70521C9A428B
:1037E000E8DB401C0728DBDB641C9C42D0DB491C67
:1037F0000529C9DBBDE8FF8FB24800089000002012
:103800002DE9F0411F4614460D46804603EB47065E
:103810000AE03B4629464046FFF7A6FF05EB460077
:10382000C5B2641C802D02D22278002AF1D1BDE8F5
:10383000F08100002DE9F04186B0212000F088F8E9
:10384000002000F085F87F2000F082F8222000F0B0
:103850007FF8002000F07CF8072000F079F8402085
:1038600000240C4E8DF8040001AD0A274FF4806847
:1038700031191022681CFCF7E5FD112301AA7821FB
:1038800005480097FEF7A8FC10344445F0DB06B06D
:10389000BDE8F081900000200405002010B56420F0
:1038A000FEF7C0FAAE2000F053F8202000F050F8E8
:1038B000002000F04DF8B02000F04AF8C82000F0D9
:1038C00047F8002000F044F8102000F041F84020B4
:1038D00000F03EF8812000F03BF8FF2000F038F8BF
:1038E000A12000F035F8A62000F032F8A82000F062
:1038F0002FF83F2000F02CF8A42000F029F8D32066
:1039000000F026F8002000F023F8D52000F020F881
:10391000F02000F01DF8D92000F01AF8222000F065
:1039200017F8DA2000F014F8122000F011F8DB206C
:1039300000F00EF8202000F00BF88D2000F008F8C1
:10394000142000F005F8BDE81040AF20AFF3008070
:103950001CB5002101918DF805000A20009002237A
:1039600001AA78210148FEF737FC1CBD04050020A0
:103970002DE9F05F3A4C3B4800252178076804F1B7
:10398000500039B17D6385620121456280F82C10B9
:10399000BDE8F09F814680F82C50D4E9020100F088
:1039A00011FF0646216B00F00DFF8246266331466B
:1039B000E06A00F05DFC8046E0625146A06A00F0DB
:1039C00003FE83464146606A00F0FEFD82463146B2
:1039D000206A00F0F9FDDFF89080414600F048FCD5
:1039E000514600F045FC594600F042FC1F49884210
:1039F00001DD084602E0404500DA404600F068FD7F
:103A0000626B0146931C984200DD19464FF4107218
:103A1000914201DD114602E0242900DA242190427E
:103A20000CDBB6F1804F09DD206C401C2064B0F542
:103A3000FA7F04D32564E562256300E025646164B0
:103A40006163084679634D46C9F8281000F05CFDB3
:103A5000074900F07BFC6862E06AE06498E70000D8
:103A60000000002058050020000010420000104413
:103A7000000034447047000070B51A48FEF780F823
:103A80000A211848FDF7DEFF174C04F15005D8B99C
:103A90001448FDF7EFFE4FF07E5600F04DFD134940
:103AA00000F054FC124900F08FFD314600F08CFD0F
:103AB000104900F089FDA0610F49E06000F084FD2D
:103AC0000E4900F043FCA8610648FEF7B9F8002152
:103AD000E1612161E961E06800F076FD60612862E2
:103AE00070BD0000D40400200000002000F07F45DD
:103AF000333353400000C040AE4701417B14864041
:103B00007047000070B5144D0026A5F15004696897
:103B10006160E8682062286960626869A062A068E4
:103B200000F01EFD0ED20D49A06800F0A1FBA060C0
:103B3000616800F015FE01D26068A060012085F880
:103B40002D0070BDD4E9011000F00AFE01D26068BA
:103B5000A06085F82D6070BD500000206F12033BFF
:103B6000FEF7FEBB30B593B028216846FCF7D1FCC8
:103B700014210AA8FCF7CDFC002501200F95109513
:103B80001195010412958DE8230004904FF4E01084
:103B9000CDE90810022407946846FEF71DFE08B11F
:103BA00072B6FEE70AA90F2081E831004FF4806069
:103BB000CDE90D0502210AA8FEF732FD08B172B663
:103BC000FEE74FF4004011900F940FA8FEF7B2FCEF
:103BD000002801D072B6FEE713B030BD7047000078
:103BE0000148FFF7EEB80000A0050020F0B502681C
:103BF000194B1A4C1A4D4FF08047984205D0B842E5
:103C000003D0A04201D0A84203D122F070064A6836
:103C10003243984205D0B84203D0A04201D0A84216
:103C200003D122F44074CA6822434C6922F0800216
:103C3000224302608A68C2620A688262984201D1A5
:103C400009690163012141610169C90703D0016963
:103C500021F001010161F0BD002C01400004004091
:103C60000008004010B501F01F030121046A9940CB
:103C70008C430462016A9A401143016210BD10B581
:103C8000846842EA032224F47F440A432243826088
:103C900010BD826822F070020A4342F00701816081
:103CA0007047000030B5036A026A22F00102026226
:103CB0004268846924F073050C682C4323F00205E4
:103CC0008B682B430A4DA8420BD123F00805CB6823
:103CD00022F440722B434D6923F0040315438A6993
:103CE0002A434260846149684163036230BD000039
:103CF000002C014030B5026A036A23F0100303620E
:103D0000436884690D6824F4E64444EA05248D6818
:103D100022F0200242EA05120B4DA8420ED1CD68D6
:103D200022F0800242EA05124D6923F4406343EA1F
:103D300085038D6922F0400243EA85034360846174
:103D400049688163026230BD002C014030B5036ACE
:103D5000026A22F4807202624268C46923F400732A
:103D600024F073050C682C438D6843EA05230C4D41
:103D7000A8420ED1CD6823F4006343EA05234D69C0
:103D800022F4405242EA05128D6923F4806342EA2C
:103D900005124260C4614968C163036230BD00001E
:103DA000002C014030B5046A026A22F4805202629B
:103DB0004268C3690D6823F4E64343EA05238D682E
:103DC00024F4005444EA0534064DA84204D14D6958
:103DD00022F4804242EA85124260C361496801646C
:103DE000046230BD002C014010B5036A046A24F05F
:103DF00001040462846924F0F00444EA021423F00C
:103E00000A020A438461026210BD10B5036A046AA3
:103E100024F010040462846923F0A00324F47044A5
:103E200044EA023243EA01118261016210BD0000DE
:103E300070B5044600680169E26821F440511143FD
:103E400001612169A0680843616908432168CA6863
:103E500041F20C639A430243CA6020684169A26937
:103E600021F44071114341611E492068884202D10A
:103E7000FEF77CFC01E0FEF769FC00EBC00101EB02
:103E80000012606864218000B2FBF0F3B3FBF1F331
:103E90006FF018067343B2FBF0F5B2FBF0F605EBDA
:103EA0008305322303EB0515B5FBF1F5B6FBF1F6FF
:103EB00005F0F00505EB0615B2FBF0F6B2FBF0F0ED
:103EC000B0FBF1F06FF01802504306EB800003EBFB
:103ED0000010B0FBF1F0216800F00F00284488606A
:103EE00070BD00000038014030B589B0FFF734FCE8
:103EF000454C606800F090F9CDE9000143A218211B
:103F000002A8FCF771F90021012302AA0846FFF775
:103F100077FCA06900F080F9CDE900013FA21821EB
:103F200002A8FCF761F9012302AA00211846FFF755
:103F300067FC3E49A06900F009FA00F06DF9CDE98F
:103F400000013BA2182102A8FCF74EF9012302AAA6
:103F500000210220FFF754FCE06900F05DF9CDE993
:103F6000000137A2182102A8FCF73EF9012302AA9A
:103F700000210420FFF744FCA4F15005E86C00F098
:103F80004BF9CDE9000132A2182102A8FCF72CF967
:103F9000012302AA00210520FFF732FC94F82C002F
:103FA000D8B1FEF74FF8A96B401A40F6B8318842F5
:103FB0000DD2A0F6B83040424FF47A71B0FBF1F365
:103FC00027A2182102A85B1CFCF70EF912E028A218
:103FD000182102A8FCF708F90CE02949606A00F0F2
:103FE000F3FA00F019F9CDE9000126A2182102A880
:103FF000FCF7FAF8012302AA00210720FFF700FCD2
:10400000FFF718FC09B030BD500000205365743A2A
:104010002025342E3166205600000000556F75743F
:104020003A25352E32662056000000000000C040C0
:10403000556164633A25352E336620560000000032
:10404000496F75743A25352E336620410000000013
:104050006572723A20202025352E326620570000E6
:10406000214F435020256C75732D3E525354000050
:10407000214F435020507265737352535400000017
:104080000000C8424F4B2020443A25352E3166258A
:1040900025000000FEE7490050EAC12018BF0420B7
:1040A0004A0D18BF40F0010040F2FF72B2EB515FC1
:1040B00008BF40F00200012808BF0520704709072B
:1040C000090E002804DB00F1E02080F8001470479E
:1040D00000F00F0000F1E02080F8141D7047303828
:1040E0000A2801D20120704700207047FEF740F9EE
:1040F000FFF738FDFFF710FAFFF7E6F92C48FDF758
:10410000CFFAFFF755FAFFF773FAFFF7D5FAFFF783
:1041100005FBFFF7C3FBFFF71FFB0021012325A2CF
:104120000846FFF76DFB012325A200210220FFF7BF
:1041300067FBFFF77FFB4FF4FA763046FDF772FE20
:1041400000212348FEF792FF214801684A6C42F49F
:1041500000424A641F4C0068616B41631E48FEF7D1
:1041600095FD0025DFF874A0A84604F150074FF430
:104170000059A06C401CA064642803D3C4F8488094
:10418000FFF7B2FE97F82C006D1C28B100224946BB
:104190005046FDF751FF06E0B54204D300254946DD
:1041A0005046FDF741FF0120FDF73CFEE1E700002E
:1041B000D4040020426F6F73742044432D444300A5
:1041C000496E697469616C697A696E672E2E0000A8
:1041D0005805002000000020A0050020001001402C
:1041E00010B500290AD00878002807D0054878447F
:1041F000FCF7A8FD002801D0002010BD024878443B
:1042000010BD0000920900008A0900000808A0F50E
:1042100000114FEA3101704743004FEAD30C4FEAD7
:104220003C0C43401FBF40070CF1605113F0FE4FA0
:1042300070471CF0006F03D100200CF00041704764
:104240000CF0004343EA507010B540EACC0000F097
:104250003CFA00BF000000924FEA0001FFF7D6BF12
:104260004FF000414FF00000A1F500217047000021
:1042700090EA010F48BF81F0004100F1AA82421A82
:104280003CBF801A89184FEAD0524FF07F4C1CEA8D
:10429000410FA2EBD15318BF9CEA026F00F03B80A4
:1042A0004FF0004C4CEA00204CEA012121FA03FCBB
:1042B00010EB0C0C1ED202F1FF325FEA1C2040EB27
:1042C000C25038BF70471CF07F0F4FEA400C18BF38
:1042D000BCF17F4F38BF7047C3F12003994008BF3E
:1042E00020F00100BCF17F4F38BF7047A0F1C04003
:1042F00000F031BA4FEA3C00000A40EBC25028BF40
:104300001CF0FF0F4FEA400CE6D018BFBCF17F4F06
:1043100038BF7047EAE79CEA026F05D010EA5C0FED
:1043200008BF00F00040704710B500F0CEF900BFA4
:1043300064FBBE3E401058BFC0F14040491058BF1A
:10434000C1F140418142EFF3008070474FF47F0C90
:104350001CEAD0121EBF1CEAD11392EA0C0F93EA9A
:104360000C0F00F0858090EA010F48BF42F4807284
:1043700040F4000C41F400002CF07F4120F07F401D
:1043800000B58142A2EB03020FF2081CACEB504EC9
:10439000C0F100009EF800E04FEA4E0E00FB0EFC5C
:1043A00038BF49004FEA2C1C02F5FA020CFB0EF351
:1043B0004FEACE1E4FEA112C4FEAC1210EEB635E8D
:1043C00042EB22420EFB0CFC4FEA1C5300FB031194
:1043D0004FEA112C4FEA01310EFB0CFC4FEADC4C8A
:1043E00000FB0C11C14228BF09184CEB03335DF8E8
:1043F00004EB10EB410143EBC250B2F57C0F38BF28
:10440000704729D512F0F00F1CBF00F1C04000F03A
:1044100000407047008182838485868788898B8CE1
:104420008D8E8F919293959697999A9C9D9FA0A21D
:10443000A3A5A7A8AAACAEB0B2B3B5B7B9BCBEC06D
:10444000C2C5C7C9CCCED1D4D7D9DCDFE2E6E9EC0E
:10445000F0F3F7FAFE0000004FEA400C0CF1807C0C
:10446000BCF17E4F28BF7047B0F1C04000F073B977
:1044700090EA010F0CEAD11348BF42F48072624502
:1044800038BF634507D213F47F0F16D080EA0100CE
:1044900000F00040704710B500F017F9097EFC3EAF
:1044A00000F005B880EA010000F00040704780EAA3
:1044B000010000F0004000F04EB912F47F0F04BF7D
:1044C0000248704780EA010000F045B90000C07F53
:1044D00041000B0ED3F19E0208D950F400034FEABD
:1044E000032323FA02F048BF4042704710B500F0A2
:1044F000ECF800BF49922480002070476FF0004222
:1045000082EA20007047000010F0004148BF40429E
:10451000B0FA80F310FA03F2C3F19D030BD051EA15
:10452000C35101EB1220530638BF704700F1010060
:1045300008BF20F001007047B0FA80F310FA03F2D0
:10454000C3F19D030AD0D90501EB1220530638BFF1
:10455000704700F1010008BF20F001007047000023
:1045600050EA010C00F113801CF5000F58BFBCF598
:10457000000F01D48842704707D710F5000F58BFCD
:1045800011F5000F15D488427047894270471CF519
:10459000000F04D5BCF5000FF7D5814270474FF0EE
:1045A000807C1CEB400F38BF1CEB410F01D28142D5
:1045B000704710B500F089F8922449004FF0005080
:1045C0004FF08051FFF7B6BE4FF47F0C1CEAD012BB
:1045D0001EBF1CEAD11392EA0C0F93EA0C0F00F0F5
:1045E000478090EA010F48BF42F480724FF0004CC0
:1045F0004CEA00204CEA012102EB0302A0FB01136C
:10460000A2F50002002918BF43F001035B0028BF98
:104610004FEA330342EB22425FEA132C4CEBC250C9
:104620002EBFBCEB436FB2F57C0F70474FEA036CB3
:10463000BCF1004F08BF20F00100B2F57C0F38BF7D
:1046400070470BD582F0FF0212F5803FC8BF70475C
:1046500000F1C040D8BF00F00040704700F5000CEA
:104660005FEA4C0C48BF7047B0F1C04000F073B82F
:1046700090EA010F0CEAD11348BF42F48072624500
:1046800038BF634504D280EA010000F00040704763
:1046900010B500F01AF800BF8900013E00F007B81D
:1046A00000F009B85FEA410C5FEA1C6C08D080EAB0
:1046B000010000F050B85FEA400C5FEA1C6CF6D1D4
:1046C0004FF00040A0F5800070470EF1020E2EF072
:1046D000030E5EF8044B244204D44FEA4102B2F1C7
:1046E0007F4F11D84FEA4003B3F17F4F0CD80ED162
:1046F0004FEAD07CB2F17F4F0CEB4C0C0CF1020C6A
:1047000008BF4CEBD17C04E04FF0080C01E04FEA0D
:10471000D17C0CEB4C0324FA03F404F00704B4F14D
:10472000040C06D20EEB840CBDE810404CF0010CDA
:104730006047DFE80CF0070802024FF00040A0F5E8
:10474000800010BD0846420018BFD2F1807288BFB9
:1047500000F0004010BDFF2141EAD050C005704775
:1047600051EA000C00F113801CF5000F58BFBCF596
:10477000000F01D48142704707D711F5000F58BFD1
:1047800010F5000F15D481427047894270471CF51F
:10479000000F04D5BCF5000FF7D5884270474FF0E5
:1047A000807C1CEB410F38BF1CEB400F01D28842CC
:1047B000704780EA010081EA000180EA0100FFF70A
:1047C000F8BE000090EA010F48BF81F000413FF5BC
:1047D00056AD421A04D882F00042A0EB0200114408
:1047E0004FEAD0524FF07F4C1CEA410FA2EBD1535D
:1047F00018BF9CEA026F4AD04FF0004C4CEA0020F0
:104800004CEA012121FA03FCB0EB0C0C0FD412F09E
:10481000FE0F36D05FEA4C001DD5001240EBC250AF
:1048200038BF70471CF03F0F18BF70470BE0A2F174
:1048300001025FEA1C2040EBC25038BF70471CF0F9
:104840007F0F18BF7047C3F12003994014BF401E6B
:1048500020F00100704780084FEA122308BF70471C
:10486000B0FA80FCA2EB0C02CCF1280C60FA0CF040
:1048700093EA122F04BF00EBC25070474FEAC37097
:104880007047130A5FEADC1008BF7047F6E79CEA3E
:10489000026F04D010EA5C0F08BF0020704710B50B
:1048A000FFF713FF40DFF63E81F000407047FBF753
:1048B0008CBF000000000000005F00000007000740
:1048C00000147F147F14242A7F2A122313086462A1
:1048D00036495522500005030000001C224100000B
:1048E00041221C0014083E081408083E0808005025
:1048F0003000000808080808006060000020100868
:1049000004023E5149453E00427F40004261514908
:10491000462141454B311814127F10274545453932
:104920003C4A49493001710905033649494936066F
:104930004949291E0036360000005636000008148A
:1049400022410014141414140041221408020151CD
:104950000906324979413E7E1111117E7F4949494C
:10496000363E414141227F4141221C7F4949494114
:104970007F090909013E4149497A7F0808087F00FB
:10498000417F41002040413F017F081422417F4088
:104990004040407F020C027F7F0408107F3E41416F
:1049A000413E7F090909063E4151215E7F091929CF
:1049B00046464949493101017F01013F4040403F9E
:1049C0001F2040201F3F4038403F631408146307F6
:1049D000087008076151494543007F4141000204C6
:1049E0000810200041417F000402010204404040C1
:1049F0004040000102040020545454787F4844444D
:104A0000383844444420384444487F385454541877
:104A1000087E0901020C5252523E7F0804047800BD
:104A2000447D40002040443D007F10284400004168
:104A30007F40007C041804787C08040478384444DF
:104A400044387C14141408081414187C7C080404DA
:104A5000084854545420043F4440203C4040207CAB
:104A60001C2040201C3C4030403C44281028440C72
:104A70005050503C4464544C4400083641000000FF
:104A80007F000000413608001008081008010202EB
:104A9000030405060708090A0B0C0D0E0F10100180
:104AA0000202030405060708090A0B0C0D0E0F107D
:104AB00010000000000000000001020304060708C7
:104AC0000900000000010203040000000240000091
:104AD000000000A00000000005400000000000C829
:104AE000000000000C4000000000409C000000009E
:104AF000194000000020BCBE00000000344000004F
:104B0000BFC91B8E00000004B5400000504BCFD041
:104B10006607E2CF010000006C4100003E8251AA0E
:104B2000DFEEA73401000000D9420000DCB5A0E2AE
:104B30003A301F97FFFFFFFFB4450000FD25A0C8D6
:104B4000E9A3C14FFFFFFFFFFF3F0000000000800F
:104B500000000000FF3F0000000000800000000097
:104B60009C4B000800000020900000002801000875
:104B70002C4C000890000020000C000044010008AC
:104B80001C00000043000000F8FFFFFF0C000000C5
:104B90000E0000000F0000002E00000000010101C7
:104BA0000000704100000000000000000000000054
:104BB0000000000000000000000000000000204194
:104BC00017B7D1380000000000000000000000000E
:104BD00024000000000000000000000000000000B1
:104BE0002400000000000000000000000000C040A1
:104BF000000070410000C03F000000400000003F86
:104C000000000000000000000000000000000000A4
:104C1000000000000A000000000100000100000088
:0C4C2000100000000000000000127A00EC
:04000005080000ED02
:00000001FF
